{
  "_format": "hh-sol-artifact-1",
  "contractName": "JPYD",
  "sourceName": "contracts/JPYD.sol",
  "abi": [
    {
      "inputs": [],
      "stateMutability": "nonpayable",
      "type": "constructor"
    },
    {
      "anonymous": false,
      "inputs": [
        {
          "indexed": true,
          "internalType": "address",
          "name": "owner",
          "type": "address"
        },
        {
          "indexed": true,
          "internalType": "address",
          "name": "spender",
          "type": "address"
        },
        {
          "indexed": false,
          "internalType": "uint256",
          "name": "value",
          "type": "uint256"
        }
      ],
      "name": "Approval",
      "type": "event"
    },
    {
      "anonymous": false,
      "inputs": [
        {
          "indexed": true,
          "internalType": "address",
          "name": "previousOwner",
          "type": "address"
        },
        {
          "indexed": true,
          "internalType": "address",
          "name": "newOwner",
          "type": "address"
        }
      ],
      "name": "OwnershipTransferred",
      "type": "event"
    },
    {
      "anonymous": false,
      "inputs": [
        {
          "indexed": false,
          "internalType": "address",
          "name": "account",
          "type": "address"
        }
      ],
      "name": "Paused",
      "type": "event"
    },
    {
      "anonymous": false,
      "inputs": [
        {
          "indexed": true,
          "internalType": "bytes32",
          "name": "role",
          "type": "bytes32"
        },
        {
          "indexed": true,
          "internalType": "bytes32",
          "name": "previousAdminRole",
          "type": "bytes32"
        },
        {
          "indexed": true,
          "internalType": "bytes32",
          "name": "newAdminRole",
          "type": "bytes32"
        }
      ],
      "name": "RoleAdminChanged",
      "type": "event"
    },
    {
      "anonymous": false,
      "inputs": [
        {
          "indexed": true,
          "internalType": "bytes32",
          "name": "role",
          "type": "bytes32"
        },
        {
          "indexed": true,
          "internalType": "address",
          "name": "account",
          "type": "address"
        },
        {
          "indexed": true,
          "internalType": "address",
          "name": "sender",
          "type": "address"
        }
      ],
      "name": "RoleGranted",
      "type": "event"
    },
    {
      "anonymous": false,
      "inputs": [
        {
          "indexed": true,
          "internalType": "bytes32",
          "name": "role",
          "type": "bytes32"
        },
        {
          "indexed": true,
          "internalType": "address",
          "name": "account",
          "type": "address"
        },
        {
          "indexed": true,
          "internalType": "address",
          "name": "sender",
          "type": "address"
        }
      ],
      "name": "RoleRevoked",
      "type": "event"
    },
    {
      "anonymous": false,
      "inputs": [
        {
          "indexed": true,
          "internalType": "address",
          "name": "from",
          "type": "address"
        },
        {
          "indexed": true,
          "internalType": "address",
          "name": "to",
          "type": "address"
        },
        {
          "indexed": false,
          "internalType": "uint256",
          "name": "value",
          "type": "uint256"
        }
      ],
      "name": "Transfer",
      "type": "event"
    },
    {
      "anonymous": false,
      "inputs": [
        {
          "indexed": false,
          "internalType": "address",
          "name": "account",
          "type": "address"
        }
      ],
      "name": "Unpaused",
      "type": "event"
    },
    {
      "inputs": [],
      "name": "DEFAULT_ADMIN_ROLE",
      "outputs": [
        {
          "internalType": "bytes32",
          "name": "",
          "type": "bytes32"
        }
      ],
      "stateMutability": "view",
      "type": "function"
    },
    {
      "inputs": [],
      "name": "DOMAIN_SEPARATOR",
      "outputs": [
        {
          "internalType": "bytes32",
          "name": "",
          "type": "bytes32"
        }
      ],
      "stateMutability": "view",
      "type": "function"
    },
    {
      "inputs": [],
      "name": "MINTER_ROLE",
      "outputs": [
        {
          "internalType": "bytes32",
          "name": "",
          "type": "bytes32"
        }
      ],
      "stateMutability": "view",
      "type": "function"
    },
    {
      "inputs": [],
      "name": "PAUSER_ROLE",
      "outputs": [
        {
          "internalType": "bytes32",
          "name": "",
          "type": "bytes32"
        }
      ],
      "stateMutability": "view",
      "type": "function"
    },
    {
      "inputs": [
        {
          "internalType": "address",
          "name": "owner",
          "type": "address"
        },
        {
          "internalType": "address",
          "name": "spender",
          "type": "address"
        }
      ],
      "name": "allowance",
      "outputs": [
        {
          "internalType": "uint256",
          "name": "",
          "type": "uint256"
        }
      ],
      "stateMutability": "view",
      "type": "function"
    },
    {
      "inputs": [
        {
          "internalType": "address",
          "name": "spender",
          "type": "address"
        },
        {
          "internalType": "uint256",
          "name": "amount",
          "type": "uint256"
        }
      ],
      "name": "approve",
      "outputs": [
        {
          "internalType": "bool",
          "name": "",
          "type": "bool"
        }
      ],
      "stateMutability": "nonpayable",
      "type": "function"
    },
    {
      "inputs": [
        {
          "internalType": "address",
          "name": "account",
          "type": "address"
        }
      ],
      "name": "balanceOf",
      "outputs": [
        {
          "internalType": "uint256",
          "name": "",
          "type": "uint256"
        }
      ],
      "stateMutability": "view",
      "type": "function"
    },
    {
      "inputs": [
        {
          "internalType": "uint256",
          "name": "amount",
          "type": "uint256"
        }
      ],
      "name": "burn",
      "outputs": [],
      "stateMutability": "nonpayable",
      "type": "function"
    },
    {
      "inputs": [
        {
          "internalType": "address",
          "name": "account",
          "type": "address"
        },
        {
          "internalType": "uint256",
          "name": "amount",
          "type": "uint256"
        }
      ],
      "name": "burnFrom",
      "outputs": [],
      "stateMutability": "nonpayable",
      "type": "function"
    },
    {
      "inputs": [],
      "name": "decimals",
      "outputs": [
        {
          "internalType": "uint8",
          "name": "",
          "type": "uint8"
        }
      ],
      "stateMutability": "view",
      "type": "function"
    },
    {
      "inputs": [
        {
          "internalType": "address",
          "name": "spender",
          "type": "address"
        },
        {
          "internalType": "uint256",
          "name": "subtractedValue",
          "type": "uint256"
        }
      ],
      "name": "decreaseAllowance",
      "outputs": [
        {
          "internalType": "bool",
          "name": "",
          "type": "bool"
        }
      ],
      "stateMutability": "nonpayable",
      "type": "function"
    },
    {
      "inputs": [
        {
          "internalType": "bytes32",
          "name": "role",
          "type": "bytes32"
        }
      ],
      "name": "getRoleAdmin",
      "outputs": [
        {
          "internalType": "bytes32",
          "name": "",
          "type": "bytes32"
        }
      ],
      "stateMutability": "view",
      "type": "function"
    },
    {
      "inputs": [
        {
          "internalType": "bytes32",
          "name": "role",
          "type": "bytes32"
        },
        {
          "internalType": "uint256",
          "name": "index",
          "type": "uint256"
        }
      ],
      "name": "getRoleMember",
      "outputs": [
        {
          "internalType": "address",
          "name": "",
          "type": "address"
        }
      ],
      "stateMutability": "view",
      "type": "function"
    },
    {
      "inputs": [
        {
          "internalType": "bytes32",
          "name": "role",
          "type": "bytes32"
        }
      ],
      "name": "getRoleMemberCount",
      "outputs": [
        {
          "internalType": "uint256",
          "name": "",
          "type": "uint256"
        }
      ],
      "stateMutability": "view",
      "type": "function"
    },
    {
      "inputs": [
        {
          "internalType": "bytes32",
          "name": "role",
          "type": "bytes32"
        },
        {
          "internalType": "address",
          "name": "account",
          "type": "address"
        }
      ],
      "name": "grantRole",
      "outputs": [],
      "stateMutability": "nonpayable",
      "type": "function"
    },
    {
      "inputs": [
        {
          "internalType": "bytes32",
          "name": "role",
          "type": "bytes32"
        },
        {
          "internalType": "address",
          "name": "account",
          "type": "address"
        }
      ],
      "name": "hasRole",
      "outputs": [
        {
          "internalType": "bool",
          "name": "",
          "type": "bool"
        }
      ],
      "stateMutability": "view",
      "type": "function"
    },
    {
      "inputs": [
        {
          "internalType": "address",
          "name": "spender",
          "type": "address"
        },
        {
          "internalType": "uint256",
          "name": "addedValue",
          "type": "uint256"
        }
      ],
      "name": "increaseAllowance",
      "outputs": [
        {
          "internalType": "bool",
          "name": "",
          "type": "bool"
        }
      ],
      "stateMutability": "nonpayable",
      "type": "function"
    },
    {
      "inputs": [
        {
          "internalType": "address",
          "name": "to",
          "type": "address"
        },
        {
          "internalType": "uint256",
          "name": "amount",
          "type": "uint256"
        }
      ],
      "name": "mint",
      "outputs": [],
      "stateMutability": "nonpayable",
      "type": "function"
    },
    {
      "inputs": [],
      "name": "name",
      "outputs": [
        {
          "internalType": "string",
          "name": "",
          "type": "string"
        }
      ],
      "stateMutability": "view",
      "type": "function"
    },
    {
      "inputs": [
        {
          "internalType": "address",
          "name": "owner",
          "type": "address"
        }
      ],
      "name": "nonces",
      "outputs": [
        {
          "internalType": "uint256",
          "name": "",
          "type": "uint256"
        }
      ],
      "stateMutability": "view",
      "type": "function"
    },
    {
      "inputs": [],
      "name": "owner",
      "outputs": [
        {
          "internalType": "address",
          "name": "",
          "type": "address"
        }
      ],
      "stateMutability": "view",
      "type": "function"
    },
    {
      "inputs": [],
      "name": "pause",
      "outputs": [],
      "stateMutability": "nonpayable",
      "type": "function"
    },
    {
      "inputs": [],
      "name": "paused",
      "outputs": [
        {
          "internalType": "bool",
          "name": "",
          "type": "bool"
        }
      ],
      "stateMutability": "view",
      "type": "function"
    },
    {
      "inputs": [
        {
          "internalType": "address",
          "name": "owner",
          "type": "address"
        },
        {
          "internalType": "address",
          "name": "spender",
          "type": "address"
        },
        {
          "internalType": "uint256",
          "name": "value",
          "type": "uint256"
        },
        {
          "internalType": "uint256",
          "name": "deadline",
          "type": "uint256"
        },
        {
          "internalType": "uint8",
          "name": "v",
          "type": "uint8"
        },
        {
          "internalType": "bytes32",
          "name": "r",
          "type": "bytes32"
        },
        {
          "internalType": "bytes32",
          "name": "s",
          "type": "bytes32"
        }
      ],
      "name": "permit",
      "outputs": [],
      "stateMutability": "nonpayable",
      "type": "function"
    },
    {
      "inputs": [],
      "name": "renounceOwnership",
      "outputs": [],
      "stateMutability": "nonpayable",
      "type": "function"
    },
    {
      "inputs": [
        {
          "internalType": "bytes32",
          "name": "role",
          "type": "bytes32"
        },
        {
          "internalType": "address",
          "name": "account",
          "type": "address"
        }
      ],
      "name": "renounceRole",
      "outputs": [],
      "stateMutability": "nonpayable",
      "type": "function"
    },
    {
      "inputs": [
        {
          "internalType": "bytes32",
          "name": "role",
          "type": "bytes32"
        },
        {
          "internalType": "address",
          "name": "account",
          "type": "address"
        }
      ],
      "name": "revokeRole",
      "outputs": [],
      "stateMutability": "nonpayable",
      "type": "function"
    },
    {
      "inputs": [
        {
          "internalType": "bytes4",
          "name": "interfaceId",
          "type": "bytes4"
        }
      ],
      "name": "supportsInterface",
      "outputs": [
        {
          "internalType": "bool",
          "name": "",
          "type": "bool"
        }
      ],
      "stateMutability": "view",
      "type": "function"
    },
    {
      "inputs": [],
      "name": "symbol",
      "outputs": [
        {
          "internalType": "string",
          "name": "",
          "type": "string"
        }
      ],
      "stateMutability": "view",
      "type": "function"
    },
    {
      "inputs": [],
      "name": "totalSupply",
      "outputs": [
        {
          "internalType": "uint256",
          "name": "",
          "type": "uint256"
        }
      ],
      "stateMutability": "view",
      "type": "function"
    },
    {
      "inputs": [
        {
          "internalType": "address",
          "name": "to",
          "type": "address"
        },
        {
          "internalType": "uint256",
          "name": "amount",
          "type": "uint256"
        }
      ],
      "name": "transfer",
      "outputs": [
        {
          "internalType": "bool",
          "name": "",
          "type": "bool"
        }
      ],
      "stateMutability": "nonpayable",
      "type": "function"
    },
    {
      "inputs": [
        {
          "internalType": "address",
          "name": "from",
          "type": "address"
        },
        {
          "internalType": "address",
          "name": "to",
          "type": "address"
        },
        {
          "internalType": "uint256",
          "name": "amount",
          "type": "uint256"
        }
      ],
      "name": "transferFrom",
      "outputs": [
        {
          "internalType": "bool",
          "name": "",
          "type": "bool"
        }
      ],
      "stateMutability": "nonpayable",
      "type": "function"
    },
    {
      "inputs": [
        {
          "internalType": "address",
          "name": "newOwner",
          "type": "address"
        }
      ],
      "name": "transferOwnership",
      "outputs": [],
      "stateMutability": "nonpayable",
      "type": "function"
    },
    {
      "inputs": [],
      "name": "unpause",
      "outputs": [],
      "stateMutability": "nonpayable",
      "type": "function"
    }
  ],
  "bytecode": "0x6101606040527f6e71edae12b1b97f4d1f60370fef10105fa2faae0126114a169c64845d6126c9610140908152503480156200003a57600080fd5b506040518060400160405280600781526020017f4a505920446f6700000000000000000000000000000000000000000000000000815250806040518060400160405280600181526020017f31000000000000000000000000000000000000000000000000000000000000008152506040518060400160405280600781526020017f4a505920446f67000000000000000000000000000000000000000000000000008152506040518060400160405280600481526020017f4a50594400000000000000000000000000000000000000000000000000000000815250818181600590805190602001906200012e9291906200067e565b508060069080519060200190620001479291906200067e565b5050506000600760006101000a81548160ff021916908315150217905550620001896000801b6200017d620002e660201b60201c565b620002ee60201b60201c565b620001ca7f9f2df0fed2c77648de5860a4cc508cd0818c85b8b8a1ab4ceeef8d981c8956a6620001be620002e660201b60201c565b620002ee60201b60201c565b6200020b7f65d7a28e3265b37a6474929f336521b332c1681b933f6cb9f3376673440d862a620001ff620002e660201b60201c565b620002ee60201b60201c565b505060008280519060200120905060008280519060200120905060007f8b73c3c69bb8fe3d512ecc4cf759cc79239f7b179b0ffacaa9a75d522b39400f90508260e081815250508161010081815250504660a08181525050620002768184846200030460201b60201c565b608081815250503073ffffffffffffffffffffffffffffffffffffffff1660c08173ffffffffffffffffffffffffffffffffffffffff1681525050806101208181525050505050505050620002e0620002d4620002e660201b60201c565b6200034060201b60201c565b6200086b565b600033905090565b6200030082826200040660201b60201c565b5050565b6000838383463060405160200162000321959493929190620007a9565b6040516020818303038152906040528051906020012090509392505050565b6000600960009054906101000a900473ffffffffffffffffffffffffffffffffffffffff16905081600960006101000a81548173ffffffffffffffffffffffffffffffffffffffff021916908373ffffffffffffffffffffffffffffffffffffffff1602179055508173ffffffffffffffffffffffffffffffffffffffff168173ffffffffffffffffffffffffffffffffffffffff167f8be0079c531659141344cd1fd0a4f28419497f9722a3daafe3b4186f6b6457e060405160405180910390a35050565b6200041d82826200044e60201b620012371760201c565b6200044981600160008581526020019081526020016000206200053f60201b620013171790919060201c565b505050565b6200046082826200057760201b60201c565b6200053b57600160008084815260200190815260200160002060000160008373ffffffffffffffffffffffffffffffffffffffff1673ffffffffffffffffffffffffffffffffffffffff16815260200190815260200160002060006101000a81548160ff021916908315150217905550620004e0620002e660201b60201c565b73ffffffffffffffffffffffffffffffffffffffff168173ffffffffffffffffffffffffffffffffffffffff16837f2f8788117e7eff1d82e926ec794901d17c78024a50270940304540a733656f0d60405160405180910390a45b5050565b60006200056f836000018373ffffffffffffffffffffffffffffffffffffffff1660001b620005e160201b60201c565b905092915050565b600080600084815260200190815260200160002060000160008373ffffffffffffffffffffffffffffffffffffffff1673ffffffffffffffffffffffffffffffffffffffff16815260200190815260200160002060009054906101000a900460ff16905092915050565b6000620005f583836200065b60201b60201c565b6200065057826000018290806001815401808255809150506001900390600052602060002001600090919091909150558260000180549050836001016000848152602001908152602001600020819055506001905062000655565b600090505b92915050565b600080836001016000848152602001908152602001600020541415905092915050565b8280546200068c9062000835565b90600052602060002090601f016020900481019282620006b05760008555620006fc565b82601f10620006cb57805160ff1916838001178555620006fc565b82800160010185558215620006fc579182015b82811115620006fb578251825591602001919060010190620006de565b5b5090506200070b91906200070f565b5090565b5b808211156200072a57600081600090555060010162000710565b5090565b6000819050919050565b62000743816200072e565b82525050565b6000819050919050565b6200075e8162000749565b82525050565b600073ffffffffffffffffffffffffffffffffffffffff82169050919050565b6000620007918262000764565b9050919050565b620007a38162000784565b82525050565b600060a082019050620007c0600083018862000738565b620007cf602083018762000738565b620007de604083018662000738565b620007ed606083018562000753565b620007fc608083018462000798565b9695505050505050565b7f4e487b7100000000000000000000000000000000000000000000000000000000600052602260045260246000fd5b600060028204905060018216806200084e57607f821691505b6020821081141562000865576200086462000806565b5b50919050565b60805160a05160c05160e05161010051610120516101405161428e620008c66000396000610f4c01526000611a2301526000611a6501526000611a4401526000611979015260006119cf015260006119f8015261428e6000f3fe608060405234801561001057600080fd5b50600436106102065760003560e01c806379cc67901161011a578063a457c2d7116100ad578063d53913931161007c578063d539139314610601578063d547741f1461061f578063dd62ed3e1461063b578063e63ab1e91461066b578063f2fde38b1461068957610206565b8063a457c2d714610555578063a9059cbb14610585578063ca15c873146105b5578063d505accf146105e557610206565b80639010d07c116100e95780639010d07c146104b957806391d14854146104e957806395d89b4114610519578063a217fddf1461053757610206565b806379cc6790146104455780637ecebe00146104615780638456cb59146104915780638da5cb5b1461049b57610206565b80633644e5151161019d57806340c10f191161016c57806340c10f19146103b557806342966c68146103d15780635c975abb146103ed57806370a082311461040b578063715018a61461043b57610206565b80633644e5151461034157806336568abe1461035f578063395093511461037b5780633f4ba83a146103ab57610206565b806323b872dd116101d957806323b872dd146102a7578063248a9ca3146102d75780632f2ff15d14610307578063313ce5671461032357610206565b806301ffc9a71461020b57806306fdde031461023b578063095ea7b31461025957806318160ddd14610289575b600080fd5b61022560048036038101906102209190612ab6565b6106a5565b6040516102329190612afe565b60405180910390f35b61024361071f565b6040516102509190612bb2565b60405180910390f35b610273600480360381019061026e9190612c68565b6107b1565b6040516102809190612afe565b60405180910390f35b6102916107d4565b60405161029e9190612cb7565b60405180910390f35b6102c160048036038101906102bc9190612cd2565b6107de565b6040516102ce9190612afe565b60405180910390f35b6102f160048036038101906102ec9190612d5b565b61080d565b6040516102fe9190612d97565b60405180910390f35b610321600480360381019061031c9190612db2565b61082c565b005b61032b610855565b6040516103389190612e0e565b60405180910390f35b61034961085e565b6040516103569190612d97565b60405180910390f35b61037960048036038101906103749190612db2565b61086d565b005b61039560048036038101906103909190612c68565b6108f0565b6040516103a29190612afe565b60405180910390f35b6103b361099a565b005b6103cf60048036038101906103ca9190612c68565b610a14565b005b6103eb60048036038101906103e69190612e29565b610a92565b005b6103f5610aa6565b6040516104029190612afe565b60405180910390f35b61042560048036038101906104209190612e56565b610abd565b6040516104329190612cb7565b60405180910390f35b610443610b06565b005b61045f600480360381019061045a9190612c68565b610b8e565b005b61047b60048036038101906104769190612e56565b610bae565b6040516104889190612cb7565b60405180910390f35b610499610bfe565b005b6104a3610c78565b6040516104b09190612e92565b60405180910390f35b6104d360048036038101906104ce9190612ead565b610ca2565b6040516104e09190612e92565b60405180910390f35b61050360048036038101906104fe9190612db2565b610cd1565b6040516105109190612afe565b60405180910390f35b610521610d3b565b60405161052e9190612bb2565b60405180910390f35b61053f610dcd565b60405161054c9190612d97565b60405180910390f35b61056f600480360381019061056a9190612c68565b610dd4565b60405161057c9190612afe565b60405180910390f35b61059f600480360381019061059a9190612c68565b610ebe565b6040516105ac9190612afe565b60405180910390f35b6105cf60048036038101906105ca9190612d5b565b610ee1565b6040516105dc9190612cb7565b60405180910390f35b6105ff60048036038101906105fa9190612f19565b610f05565b005b610609611047565b6040516106169190612d97565b60405180910390f35b61063960048036038101906106349190612db2565b61106b565b005b61065560048036038101906106509190612fbb565b611094565b6040516106629190612cb7565b60405180910390f35b61067361111b565b6040516106809190612d97565b60405180910390f35b6106a3600480360381019061069e9190612e56565b61113f565b005b60007f5a05180f000000000000000000000000000000000000000000000000000000007bffffffffffffffffffffffffffffffffffffffffffffffffffffffff1916827bffffffffffffffffffffffffffffffffffffffffffffffffffffffff19161480610718575061071782611347565b5b9050919050565b60606005805461072e9061302a565b80601f016020809104026020016040519081016040528092919081815260200182805461075a9061302a565b80156107a75780601f1061077c576101008083540402835291602001916107a7565b820191906000526020600020905b81548152906001019060200180831161078a57829003601f168201915b5050505050905090565b6000806107bc6113c1565b90506107c98185856113c9565b600191505092915050565b6000600454905090565b6000806107e96113c1565b90506107f6858285611594565b610801858585611620565b60019150509392505050565b6000806000838152602001908152602001600020600101549050919050565b6108358261080d565b610846816108416113c1565b6118a4565b6108508383611941565b505050565b60006012905090565b6000610868611975565b905090565b6108756113c1565b73ffffffffffffffffffffffffffffffffffffffff168173ffffffffffffffffffffffffffffffffffffffff16146108e2576040517f08c379a00000000000000000000000000000000000000000000000000000000081526004016108d9906130ce565b60405180910390fd5b6108ec8282611a8f565b5050565b6000806108fb6113c1565b905061098f818585600360008673ffffffffffffffffffffffffffffffffffffffff1673ffffffffffffffffffffffffffffffffffffffff16815260200190815260200160002060008973ffffffffffffffffffffffffffffffffffffffff1673ffffffffffffffffffffffffffffffffffffffff1681526020019081526020016000205461098a919061311d565b6113c9565b600191505092915050565b6109cb7f65d7a28e3265b37a6474929f336521b332c1681b933f6cb9f3376673440d862a6109c66113c1565b610cd1565b610a0a576040517f08c379a0000000000000000000000000000000000000000000000000000000008152600401610a01906131e5565b60405180910390fd5b610a12611ac3565b565b610a457f9f2df0fed2c77648de5860a4cc508cd0818c85b8b8a1ab4ceeef8d981c8956a6610a406113c1565b610cd1565b610a84576040517f08c379a0000000000000000000000000000000000000000000000000000000008152600401610a7b90613277565b60405180910390fd5b610a8e8282611b65565b5050565b610aa3610a9d6113c1565b82611cc6565b50565b6000600760009054906101000a900460ff16905090565b6000600260008373ffffffffffffffffffffffffffffffffffffffff1673ffffffffffffffffffffffffffffffffffffffff168152602001908152602001600020549050919050565b610b0e6113c1565b73ffffffffffffffffffffffffffffffffffffffff16610b2c610c78565b73ffffffffffffffffffffffffffffffffffffffff1614610b82576040517f08c379a0000000000000000000000000000000000000000000000000000000008152600401610b79906132e3565b60405180910390fd5b610b8c6000611e9f565b565b610ba082610b9a6113c1565b83611594565b610baa8282611cc6565b5050565b6000610bf7600860008473ffffffffffffffffffffffffffffffffffffffff1673ffffffffffffffffffffffffffffffffffffffff168152602001908152602001600020611f65565b9050919050565b610c2f7f65d7a28e3265b37a6474929f336521b332c1681b933f6cb9f3376673440d862a610c2a6113c1565b610cd1565b610c6e576040517f08c379a0000000000000000000000000000000000000000000000000000000008152600401610c6590613375565b60405180910390fd5b610c76611f73565b565b6000600960009054906101000a900473ffffffffffffffffffffffffffffffffffffffff16905090565b6000610cc9826001600086815260200190815260200160002061201690919063ffffffff16565b905092915050565b600080600084815260200190815260200160002060000160008373ffffffffffffffffffffffffffffffffffffffff1673ffffffffffffffffffffffffffffffffffffffff16815260200190815260200160002060009054906101000a900460ff16905092915050565b606060068054610d4a9061302a565b80601f0160208091040260200160405190810160405280929190818152602001828054610d769061302a565b8015610dc35780601f10610d9857610100808354040283529160200191610dc3565b820191906000526020600020905b815481529060010190602001808311610da657829003601f168201915b5050505050905090565b6000801b81565b600080610ddf6113c1565b90506000600360008373ffffffffffffffffffffffffffffffffffffffff1673ffffffffffffffffffffffffffffffffffffffff16815260200190815260200160002060008673ffffffffffffffffffffffffffffffffffffffff1673ffffffffffffffffffffffffffffffffffffffff16815260200190815260200160002054905083811015610ea5576040517f08c379a0000000000000000000000000000000000000000000000000000000008152600401610e9c90613407565b60405180910390fd5b610eb282868684036113c9565b60019250505092915050565b600080610ec96113c1565b9050610ed6818585611620565b600191505092915050565b6000610efe60016000848152602001908152602001600020612030565b9050919050565b83421115610f48576040517f08c379a0000000000000000000000000000000000000000000000000000000008152600401610f3f90613473565b60405180910390fd5b60007f0000000000000000000000000000000000000000000000000000000000000000888888610f778c612045565b89604051602001610f8d96959493929190613493565b6040516020818303038152906040528051906020012090506000610fb0826120a3565b90506000610fc0828787876120bd565b90508973ffffffffffffffffffffffffffffffffffffffff168173ffffffffffffffffffffffffffffffffffffffff1614611030576040517f08c379a000000000000000000000000000000000000000000000000000000000815260040161102790613540565b60405180910390fd5b61103b8a8a8a6113c9565b50505050505050505050565b7f9f2df0fed2c77648de5860a4cc508cd0818c85b8b8a1ab4ceeef8d981c8956a681565b6110748261080d565b611085816110806113c1565b6118a4565b61108f8383611a8f565b505050565b6000600360008473ffffffffffffffffffffffffffffffffffffffff1673ffffffffffffffffffffffffffffffffffffffff16815260200190815260200160002060008373ffffffffffffffffffffffffffffffffffffffff1673ffffffffffffffffffffffffffffffffffffffff16815260200190815260200160002054905092915050565b7f65d7a28e3265b37a6474929f336521b332c1681b933f6cb9f3376673440d862a81565b6111476113c1565b73ffffffffffffffffffffffffffffffffffffffff16611165610c78565b73ffffffffffffffffffffffffffffffffffffffff16146111bb576040517f08c379a00000000000000000000000000000000000000000000000000000000081526004016111b2906132e3565b60405180910390fd5b600073ffffffffffffffffffffffffffffffffffffffff168173ffffffffffffffffffffffffffffffffffffffff16141561122b576040517f08c379a0000000000000000000000000000000000000000000000000000000008152600401611222906135d2565b60405180910390fd5b61123481611e9f565b50565b6112418282610cd1565b61131357600160008084815260200190815260200160002060000160008373ffffffffffffffffffffffffffffffffffffffff1673ffffffffffffffffffffffffffffffffffffffff16815260200190815260200160002060006101000a81548160ff0219169083151502179055506112b86113c1565b73ffffffffffffffffffffffffffffffffffffffff168173ffffffffffffffffffffffffffffffffffffffff16837f2f8788117e7eff1d82e926ec794901d17c78024a50270940304540a733656f0d60405160405180910390a45b5050565b600061133f836000018373ffffffffffffffffffffffffffffffffffffffff1660001b6120e8565b905092915050565b60007f7965db0b000000000000000000000000000000000000000000000000000000007bffffffffffffffffffffffffffffffffffffffffffffffffffffffff1916827bffffffffffffffffffffffffffffffffffffffffffffffffffffffff191614806113ba57506113b982612158565b5b9050919050565b600033905090565b600073ffffffffffffffffffffffffffffffffffffffff168373ffffffffffffffffffffffffffffffffffffffff161415611439576040517f08c379a000000000000000000000000000000000000000000000000000000000815260040161143090613664565b60405180910390fd5b600073ffffffffffffffffffffffffffffffffffffffff168273ffffffffffffffffffffffffffffffffffffffff1614156114a9576040517f08c379a00000000000000000000000000000000000000000000000000000000081526004016114a0906136f6565b60405180910390fd5b80600360008573ffffffffffffffffffffffffffffffffffffffff1673ffffffffffffffffffffffffffffffffffffffff16815260200190815260200160002060008473ffffffffffffffffffffffffffffffffffffffff1673ffffffffffffffffffffffffffffffffffffffff168152602001908152602001600020819055508173ffffffffffffffffffffffffffffffffffffffff168373ffffffffffffffffffffffffffffffffffffffff167f8c5be1e5ebec7d5bd14f71427d1e84f3dd0314c0f7b2291e5b200ac8c7c3b925836040516115879190612cb7565b60405180910390a3505050565b60006115a08484611094565b90507fffffffffffffffffffffffffffffffffffffffffffffffffffffffffffffffff811461161a578181101561160c576040517f08c379a000000000000000000000000000000000000000000000000000000000815260040161160390613762565b60405180910390fd5b61161984848484036113c9565b5b50505050565b600073ffffffffffffffffffffffffffffffffffffffff168373ffffffffffffffffffffffffffffffffffffffff161415611690576040517f08c379a0000000000000000000000000000000000000000000000000000000008152600401611687906137f4565b60405180910390fd5b600073ffffffffffffffffffffffffffffffffffffffff168273ffffffffffffffffffffffffffffffffffffffff161415611700576040517f08c379a00000000000000000000000000000000000000000000000000000000081526004016116f790613886565b60405180910390fd5b61170b8383836121c2565b6000600260008573ffffffffffffffffffffffffffffffffffffffff1673ffffffffffffffffffffffffffffffffffffffff16815260200190815260200160002054905081811015611792576040517f08c379a000000000000000000000000000000000000000000000000000000000815260040161178990613918565b60405180910390fd5b818103600260008673ffffffffffffffffffffffffffffffffffffffff1673ffffffffffffffffffffffffffffffffffffffff1681526020019081526020016000208190555081600260008573ffffffffffffffffffffffffffffffffffffffff1673ffffffffffffffffffffffffffffffffffffffff1681526020019081526020016000206000828254611827919061311d565b925050819055508273ffffffffffffffffffffffffffffffffffffffff168473ffffffffffffffffffffffffffffffffffffffff167fddf252ad1be2c89b69c2b068fc378daa952ba7f163c4a11628f55a4df523b3ef8460405161188b9190612cb7565b60405180910390a361189e8484846121d2565b50505050565b6118ae8282610cd1565b61193d576118d38173ffffffffffffffffffffffffffffffffffffffff1660146121d7565b6118e18360001c60206121d7565b6040516020016118f2929190613a0c565b6040516020818303038152906040526040517f08c379a00000000000000000000000000000000000000000000000000000000081526004016119349190612bb2565b60405180910390fd5b5050565b61194b8282611237565b611970816001600085815260200190815260200160002061131790919063ffffffff16565b505050565b60007f000000000000000000000000000000000000000000000000000000000000000073ffffffffffffffffffffffffffffffffffffffff163073ffffffffffffffffffffffffffffffffffffffff161480156119f157507f000000000000000000000000000000000000000000000000000000000000000046145b15611a1e577f00000000000000000000000000000000000000000000000000000000000000009050611a8c565b611a897f00000000000000000000000000000000000000000000000000000000000000007f00000000000000000000000000000000000000000000000000000000000000007f0000000000000000000000000000000000000000000000000000000000000000612413565b90505b90565b611a99828261244d565b611abe816001600085815260200190815260200160002061252e90919063ffffffff16565b505050565b611acb610aa6565b611b0a576040517f08c379a0000000000000000000000000000000000000000000000000000000008152600401611b0190613a92565b60405180910390fd5b6000600760006101000a81548160ff0219169083151502179055507f5db9ee0a495bf2e6ff9c91a7834c1ba4fdd244a5e8aa4e537bd38aeae4b073aa611b4e6113c1565b604051611b5b9190612e92565b60405180910390a1565b600073ffffffffffffffffffffffffffffffffffffffff168273ffffffffffffffffffffffffffffffffffffffff161415611bd5576040517f08c379a0000000000000000000000000000000000000000000000000000000008152600401611bcc90613afe565b60405180910390fd5b611be1600083836121c2565b8060046000828254611bf3919061311d565b9250508190555080600260008473ffffffffffffffffffffffffffffffffffffffff1673ffffffffffffffffffffffffffffffffffffffff1681526020019081526020016000206000828254611c49919061311d565b925050819055508173ffffffffffffffffffffffffffffffffffffffff16600073ffffffffffffffffffffffffffffffffffffffff167fddf252ad1be2c89b69c2b068fc378daa952ba7f163c4a11628f55a4df523b3ef83604051611cae9190612cb7565b60405180910390a3611cc2600083836121d2565b5050565b600073ffffffffffffffffffffffffffffffffffffffff168273ffffffffffffffffffffffffffffffffffffffff161415611d36576040517f08c379a0000000000000000000000000000000000000000000000000000000008152600401611d2d90613b90565b60405180910390fd5b611d42826000836121c2565b6000600260008473ffffffffffffffffffffffffffffffffffffffff1673ffffffffffffffffffffffffffffffffffffffff16815260200190815260200160002054905081811015611dc9576040517f08c379a0000000000000000000000000000000000000000000000000000000008152600401611dc090613c22565b60405180910390fd5b818103600260008573ffffffffffffffffffffffffffffffffffffffff1673ffffffffffffffffffffffffffffffffffffffff168152602001908152602001600020819055508160046000828254611e219190613c42565b92505081905550600073ffffffffffffffffffffffffffffffffffffffff168373ffffffffffffffffffffffffffffffffffffffff167fddf252ad1be2c89b69c2b068fc378daa952ba7f163c4a11628f55a4df523b3ef84604051611e869190612cb7565b60405180910390a3611e9a836000846121d2565b505050565b6000600960009054906101000a900473ffffffffffffffffffffffffffffffffffffffff16905081600960006101000a81548173ffffffffffffffffffffffffffffffffffffffff021916908373ffffffffffffffffffffffffffffffffffffffff1602179055508173ffffffffffffffffffffffffffffffffffffffff168173ffffffffffffffffffffffffffffffffffffffff167f8be0079c531659141344cd1fd0a4f28419497f9722a3daafe3b4186f6b6457e060405160405180910390a35050565b600081600001549050919050565b611f7b610aa6565b15611fbb576040517f08c379a0000000000000000000000000000000000000000000000000000000008152600401611fb290613cc2565b60405180910390fd5b6001600760006101000a81548160ff0219169083151502179055507f62e78cea01bee320cd4e420270b5ea74000d11b0c9f74754ebdbfc544b05a258611fff6113c1565b60405161200c9190612e92565b60405180910390a1565b6000612025836000018361255e565b60001c905092915050565b600061203e82600001612589565b9050919050565b600080600860008473ffffffffffffffffffffffffffffffffffffffff1673ffffffffffffffffffffffffffffffffffffffff168152602001908152602001600020905061209281611f65565b915061209d8161259a565b50919050565b60006120b66120b0611975565b836125b0565b9050919050565b60008060006120ce878787876125e3565b915091506120db816126f0565b8192505050949350505050565b60006120f483836128c5565b61214d578260000182908060018154018082558091505060019003906000526020600020016000909190919091505582600001805490508360010160008481526020019081526020016000208190555060019050612152565b600090505b92915050565b60007f01ffc9a7000000000000000000000000000000000000000000000000000000007bffffffffffffffffffffffffffffffffffffffffffffffffffffffff1916827bffffffffffffffffffffffffffffffffffffffffffffffffffffffff1916149050919050565b6121cd8383836128e8565b505050565b505050565b6060600060028360026121ea9190613ce2565b6121f4919061311d565b67ffffffffffffffff81111561220d5761220c613d3c565b5b6040519080825280601f01601f19166020018201604052801561223f5781602001600182028036833780820191505090505b5090507f30000000000000000000000000000000000000000000000000000000000000008160008151811061227757612276613d6b565b5b60200101907effffffffffffffffffffffffffffffffffffffffffffffffffffffffffffff1916908160001a9053507f7800000000000000000000000000000000000000000000000000000000000000816001815181106122db576122da613d6b565b5b60200101907effffffffffffffffffffffffffffffffffffffffffffffffffffffffffffff1916908160001a9053506000600184600261231b9190613ce2565b612325919061311d565b90505b60018111156123c5577f3031323334353637383961626364656600000000000000000000000000000000600f86166010811061236757612366613d6b565b5b1a60f81b82828151811061237e5761237d613d6b565b5b60200101907effffffffffffffffffffffffffffffffffffffffffffffffffffffffffffff1916908160001a905350600485901c9450806123be90613d9a565b9050612328565b5060008414612409576040517f08c379a000000000000000000000000000000000000000000000000000000000815260040161240090613e10565b60405180910390fd5b8091505092915050565b6000838383463060405160200161242e959493929190613e30565b6040516020818303038152906040528051906020012090509392505050565b6124578282610cd1565b1561252a57600080600084815260200190815260200160002060000160008373ffffffffffffffffffffffffffffffffffffffff1673ffffffffffffffffffffffffffffffffffffffff16815260200190815260200160002060006101000a81548160ff0219169083151502179055506124cf6113c1565b73ffffffffffffffffffffffffffffffffffffffff168173ffffffffffffffffffffffffffffffffffffffff16837ff6391f5c32d9c69d2a47ea670b442974b53935d1edc7fd64eb21e047a839171b60405160405180910390a45b5050565b6000612556836000018373ffffffffffffffffffffffffffffffffffffffff1660001b612940565b905092915050565b600082600001828154811061257657612575613d6b565b5b9060005260206000200154905092915050565b600081600001805490509050919050565b6001816000016000828254019250508190555050565b600082826040516020016125c5929190613ef0565b60405160208183030381529060405280519060200120905092915050565b6000807f7fffffffffffffffffffffffffffffff5d576e7357a4501ddfe92f46681b20a08360001c111561261e5760006003915091506126e7565b601b8560ff16141580156126365750601c8560ff1614155b156126485760006004915091506126e7565b60006001878787876040516000815260200160405260405161266d9493929190613f27565b6020604051602081039080840390855afa15801561268f573d6000803e3d6000fd5b505050602060405103519050600073ffffffffffffffffffffffffffffffffffffffff168173ffffffffffffffffffffffffffffffffffffffff1614156126de576000600192509250506126e7565b80600092509250505b94509492505050565b6000600481111561270457612703613f6c565b5b81600481111561271757612716613f6c565b5b1415612722576128c2565b6001600481111561273657612735613f6c565b5b81600481111561274957612748613f6c565b5b141561278a576040517f08c379a000000000000000000000000000000000000000000000000000000000815260040161278190613fe7565b60405180910390fd5b6002600481111561279e5761279d613f6c565b5b8160048111156127b1576127b0613f6c565b5b14156127f2576040517f08c379a00000000000000000000000000000000000000000000000000000000081526004016127e990614053565b60405180910390fd5b6003600481111561280657612805613f6c565b5b81600481111561281957612818613f6c565b5b141561285a576040517f08c379a0000000000000000000000000000000000000000000000000000000008152600401612851906140e5565b60405180910390fd5b60048081111561286d5761286c613f6c565b5b8160048111156128805761287f613f6c565b5b14156128c1576040517f08c379a00000000000000000000000000000000000000000000000000000000081526004016128b890614177565b60405180910390fd5b5b50565b600080836001016000848152602001908152602001600020541415905092915050565b6128f3838383612a54565b6128fb610aa6565b1561293b576040517f08c379a000000000000000000000000000000000000000000000000000000000815260040161293290614209565b60405180910390fd5b505050565b60008083600101600084815260200190815260200160002054905060008114612a485760006001826129729190613c42565b905060006001866000018054905061298a9190613c42565b90508181146129f95760008660000182815481106129ab576129aa613d6b565b5b90600052602060002001549050808760000184815481106129cf576129ce613d6b565b5b90600052602060002001819055508387600101600083815260200190815260200160002081905550505b85600001805480612a0d57612a0c614229565b5b600190038181906000526020600020016000905590558560010160008681526020019081526020016000206000905560019350505050612a4e565b60009150505b92915050565b505050565b600080fd5b60007fffffffff0000000000000000000000000000000000000000000000000000000082169050919050565b612a9381612a5e565b8114612a9e57600080fd5b50565b600081359050612ab081612a8a565b92915050565b600060208284031215612acc57612acb612a59565b5b6000612ada84828501612aa1565b91505092915050565b60008115159050919050565b612af881612ae3565b82525050565b6000602082019050612b136000830184612aef565b92915050565b600081519050919050565b600082825260208201905092915050565b60005b83811015612b53578082015181840152602081019050612b38565b83811115612b62576000848401525b50505050565b6000601f19601f8301169050919050565b6000612b8482612b19565b612b8e8185612b24565b9350612b9e818560208601612b35565b612ba781612b68565b840191505092915050565b60006020820190508181036000830152612bcc8184612b79565b905092915050565b600073ffffffffffffffffffffffffffffffffffffffff82169050919050565b6000612bff82612bd4565b9050919050565b612c0f81612bf4565b8114612c1a57600080fd5b50565b600081359050612c2c81612c06565b92915050565b6000819050919050565b612c4581612c32565b8114612c5057600080fd5b50565b600081359050612c6281612c3c565b92915050565b60008060408385031215612c7f57612c7e612a59565b5b6000612c8d85828601612c1d565b9250506020612c9e85828601612c53565b9150509250929050565b612cb181612c32565b82525050565b6000602082019050612ccc6000830184612ca8565b92915050565b600080600060608486031215612ceb57612cea612a59565b5b6000612cf986828701612c1d565b9350506020612d0a86828701612c1d565b9250506040612d1b86828701612c53565b9150509250925092565b6000819050919050565b612d3881612d25565b8114612d4357600080fd5b50565b600081359050612d5581612d2f565b92915050565b600060208284031215612d7157612d70612a59565b5b6000612d7f84828501612d46565b91505092915050565b612d9181612d25565b82525050565b6000602082019050612dac6000830184612d88565b92915050565b60008060408385031215612dc957612dc8612a59565b5b6000612dd785828601612d46565b9250506020612de885828601612c1d565b9150509250929050565b600060ff82169050919050565b612e0881612df2565b82525050565b6000602082019050612e236000830184612dff565b92915050565b600060208284031215612e3f57612e3e612a59565b5b6000612e4d84828501612c53565b91505092915050565b600060208284031215612e6c57612e6b612a59565b5b6000612e7a84828501612c1d565b91505092915050565b612e8c81612bf4565b82525050565b6000602082019050612ea76000830184612e83565b92915050565b60008060408385031215612ec457612ec3612a59565b5b6000612ed285828601612d46565b9250506020612ee385828601612c53565b9150509250929050565b612ef681612df2565b8114612f0157600080fd5b50565b600081359050612f1381612eed565b92915050565b600080600080600080600060e0888a031215612f3857612f37612a59565b5b6000612f468a828b01612c1d565b9750506020612f578a828b01612c1d565b9650506040612f688a828b01612c53565b9550506060612f798a828b01612c53565b9450506080612f8a8a828b01612f04565b93505060a0612f9b8a828b01612d46565b92505060c0612fac8a828b01612d46565b91505092959891949750929550565b60008060408385031215612fd257612fd1612a59565b5b6000612fe085828601612c1d565b9250506020612ff185828601612c1d565b9150509250929050565b7f4e487b7100000000000000000000000000000000000000000000000000000000600052602260045260246000fd5b6000600282049050600182168061304257607f821691505b6020821081141561305657613055612ffb565b5b50919050565b7f416363657373436f6e74726f6c3a2063616e206f6e6c792072656e6f756e636560008201527f20726f6c657320666f722073656c660000000000000000000000000000000000602082015250565b60006130b8602f83612b24565b91506130c38261305c565b604082019050919050565b600060208201905081810360008301526130e7816130ab565b9050919050565b7f4e487b7100000000000000000000000000000000000000000000000000000000600052601160045260246000fd5b600061312882612c32565b915061313383612c32565b9250827fffffffffffffffffffffffffffffffffffffffffffffffffffffffffffffffff03821115613168576131676130ee565b5b828201905092915050565b7f45524332305072657365744d696e7465725061757365723a206d75737420686160008201527f76652070617573657220726f6c6520746f20756e706175736500000000000000602082015250565b60006131cf603983612b24565b91506131da82613173565b604082019050919050565b600060208201905081810360008301526131fe816131c2565b9050919050565b7f45524332305072657365744d696e7465725061757365723a206d75737420686160008201527f7665206d696e74657220726f6c6520746f206d696e7400000000000000000000602082015250565b6000613261603683612b24565b915061326c82613205565b604082019050919050565b6000602082019050818103600083015261329081613254565b9050919050565b7f4f776e61626c653a2063616c6c6572206973206e6f7420746865206f776e6572600082015250565b60006132cd602083612b24565b91506132d882613297565b602082019050919050565b600060208201905081810360008301526132fc816132c0565b9050919050565b7f45524332305072657365744d696e7465725061757365723a206d75737420686160008201527f76652070617573657220726f6c6520746f207061757365000000000000000000602082015250565b600061335f603783612b24565b915061336a82613303565b604082019050919050565b6000602082019050818103600083015261338e81613352565b9050919050565b7f45524332303a2064656372656173656420616c6c6f77616e63652062656c6f7760008201527f207a65726f000000000000000000000000000000000000000000000000000000602082015250565b60006133f1602583612b24565b91506133fc82613395565b604082019050919050565b60006020820190508181036000830152613420816133e4565b9050919050565b7f45524332305065726d69743a206578706972656420646561646c696e65000000600082015250565b600061345d601d83612b24565b915061346882613427565b602082019050919050565b6000602082019050818103600083015261348c81613450565b9050919050565b600060c0820190506134a86000830189612d88565b6134b56020830188612e83565b6134c26040830187612e83565b6134cf6060830186612ca8565b6134dc6080830185612ca8565b6134e960a0830184612ca8565b979650505050505050565b7f45524332305065726d69743a20696e76616c6964207369676e61747572650000600082015250565b600061352a601e83612b24565b9150613535826134f4565b602082019050919050565b600060208201905081810360008301526135598161351d565b9050919050565b7f4f776e61626c653a206e6577206f776e657220697320746865207a65726f206160008201527f6464726573730000000000000000000000000000000000000000000000000000602082015250565b60006135bc602683612b24565b91506135c782613560565b604082019050919050565b600060208201905081810360008301526135eb816135af565b9050919050565b7f45524332303a20617070726f76652066726f6d20746865207a65726f2061646460008201527f7265737300000000000000000000000000000000000000000000000000000000602082015250565b600061364e602483612b24565b9150613659826135f2565b604082019050919050565b6000602082019050818103600083015261367d81613641565b9050919050565b7f45524332303a20617070726f766520746f20746865207a65726f20616464726560008201527f7373000000000000000000000000000000000000000000000000000000000000602082015250565b60006136e0602283612b24565b91506136eb82613684565b604082019050919050565b6000602082019050818103600083015261370f816136d3565b9050919050565b7f45524332303a20696e73756666696369656e7420616c6c6f77616e6365000000600082015250565b600061374c601d83612b24565b915061375782613716565b602082019050919050565b6000602082019050818103600083015261377b8161373f565b9050919050565b7f45524332303a207472616e736665722066726f6d20746865207a65726f20616460008201527f6472657373000000000000000000000000000000000000000000000000000000602082015250565b60006137de602583612b24565b91506137e982613782565b604082019050919050565b6000602082019050818103600083015261380d816137d1565b9050919050565b7f45524332303a207472616e7366657220746f20746865207a65726f206164647260008201527f6573730000000000000000000000000000000000000000000000000000000000602082015250565b6000613870602383612b24565b915061387b82613814565b604082019050919050565b6000602082019050818103600083015261389f81613863565b9050919050565b7f45524332303a207472616e7366657220616d6f756e742065786365656473206260008201527f616c616e63650000000000000000000000000000000000000000000000000000602082015250565b6000613902602683612b24565b915061390d826138a6565b604082019050919050565b60006020820190508181036000830152613931816138f5565b9050919050565b600081905092915050565b7f416363657373436f6e74726f6c3a206163636f756e7420000000000000000000600082015250565b6000613979601783613938565b915061398482613943565b601782019050919050565b600061399a82612b19565b6139a48185613938565b93506139b4818560208601612b35565b80840191505092915050565b7f206973206d697373696e6720726f6c6520000000000000000000000000000000600082015250565b60006139f6601183613938565b9150613a01826139c0565b601182019050919050565b6000613a178261396c565b9150613a23828561398f565b9150613a2e826139e9565b9150613a3a828461398f565b91508190509392505050565b7f5061757361626c653a206e6f7420706175736564000000000000000000000000600082015250565b6000613a7c601483612b24565b9150613a8782613a46565b602082019050919050565b60006020820190508181036000830152613aab81613a6f565b9050919050565b7f45524332303a206d696e7420746f20746865207a65726f206164647265737300600082015250565b6000613ae8601f83612b24565b9150613af382613ab2565b602082019050919050565b60006020820190508181036000830152613b1781613adb565b9050919050565b7f45524332303a206275726e2066726f6d20746865207a65726f2061646472657360008201527f7300000000000000000000000000000000000000000000000000000000000000602082015250565b6000613b7a602183612b24565b9150613b8582613b1e565b604082019050919050565b60006020820190508181036000830152613ba981613b6d565b9050919050565b7f45524332303a206275726e20616d6f756e7420657863656564732062616c616e60008201527f6365000000000000000000000000000000000000000000000000000000000000602082015250565b6000613c0c602283612b24565b9150613c1782613bb0565b604082019050919050565b60006020820190508181036000830152613c3b81613bff565b9050919050565b6000613c4d82612c32565b9150613c5883612c32565b925082821015613c6b57613c6a6130ee565b5b828203905092915050565b7f5061757361626c653a2070617573656400000000000000000000000000000000600082015250565b6000613cac601083612b24565b9150613cb782613c76565b602082019050919050565b60006020820190508181036000830152613cdb81613c9f565b9050919050565b6000613ced82612c32565b9150613cf883612c32565b9250817fffffffffffffffffffffffffffffffffffffffffffffffffffffffffffffffff0483118215151615613d3157613d306130ee565b5b828202905092915050565b7f4e487b7100000000000000000000000000000000000000000000000000000000600052604160045260246000fd5b7f4e487b7100000000000000000000000000000000000000000000000000000000600052603260045260246000fd5b6000613da582612c32565b91506000821415613db957613db86130ee565b5b600182039050919050565b7f537472696e67733a20686578206c656e67746820696e73756666696369656e74600082015250565b6000613dfa602083612b24565b9150613e0582613dc4565b602082019050919050565b60006020820190508181036000830152613e2981613ded565b9050919050565b600060a082019050613e456000830188612d88565b613e526020830187612d88565b613e5f6040830186612d88565b613e6c6060830185612ca8565b613e796080830184612e83565b9695505050505050565b7f1901000000000000000000000000000000000000000000000000000000000000600082015250565b6000613eb9600283613938565b9150613ec482613e83565b600282019050919050565b6000819050919050565b613eea613ee582612d25565b613ecf565b82525050565b6000613efb82613eac565b9150613f078285613ed9565b602082019150613f178284613ed9565b6020820191508190509392505050565b6000608082019050613f3c6000830187612d88565b613f496020830186612dff565b613f566040830185612d88565b613f636060830184612d88565b95945050505050565b7f4e487b7100000000000000000000000000000000000000000000000000000000600052602160045260246000fd5b7f45434453413a20696e76616c6964207369676e61747572650000000000000000600082015250565b6000613fd1601883612b24565b9150613fdc82613f9b565b602082019050919050565b6000602082019050818103600083015261400081613fc4565b9050919050565b7f45434453413a20696e76616c6964207369676e6174757265206c656e67746800600082015250565b600061403d601f83612b24565b915061404882614007565b602082019050919050565b6000602082019050818103600083015261406c81614030565b9050919050565b7f45434453413a20696e76616c6964207369676e6174757265202773272076616c60008201527f7565000000000000000000000000000000000000000000000000000000000000602082015250565b60006140cf602283612b24565b91506140da82614073565b604082019050919050565b600060208201905081810360008301526140fe816140c2565b9050919050565b7f45434453413a20696e76616c6964207369676e6174757265202776272076616c60008201527f7565000000000000000000000000000000000000000000000000000000000000602082015250565b6000614161602283612b24565b915061416c82614105565b604082019050919050565b6000602082019050818103600083015261419081614154565b9050919050565b7f45524332305061757361626c653a20746f6b656e207472616e7366657220776860008201527f696c652070617573656400000000000000000000000000000000000000000000602082015250565b60006141f3602a83612b24565b91506141fe82614197565b604082019050919050565b60006020820190508181036000830152614222816141e6565b9050919050565b7f4e487b7100000000000000000000000000000000000000000000000000000000600052603160045260246000fdfea26469706673582212207834a74a311b73a0d7d3e33e267dce4434ba4b83501f6f27c42831336b36bf8664736f6c634300080c0033",
  "linkReferences": {},
  "deployedLinkReferences": {}
}